:10000000AFC20000CAC20000C8C20000C6C20000E1
:10001000C4C20000C2C20000C0C20000BEC20000D4
:10002000BCC20000BAC20000B8C20000B6C20000E4
:10003000B4C20000B2C20000B0C20000AEC20000F4
:10004000ACC20000AAC20000A8C20000A6C2000004
:10005000A4C20000A2C20000A0C200009EC2000014
:100060009CC200009AC2000098C2000096C2000024
:1000700094C2000092C2000090C20000EB06EE069F
:10008000F106F406FD06F706FA0600070307060761
:1000900009070C070F071207150718071B071E078C
:1000A00021073207350738073B0744073E0741075A
:1000B00047074A074D0750075307560759075C077C
:1000C0005F0762076507680707634236B79BD8A7D3
:1000D0001A39685618AEBAAB558C1D3CB7CC57636D
:1000E000BD6DEDFD753EF6177231BF000000803F1B
:1000F00008000000BE922449123EABAAAA2ABECD37
:10010000CCCC4C3E00000080BEABAAAAAA3E0000A8
:100110000000BF000000803F0000000000084178A0
:10012000D3BB4387D1133D190E3CC3BD4282AD2BD7
:100130003E68EC8276BED98FE1A93E4C80EFFFBECF
:1001400001C4FF7F3F000000000016050100000011
:1001500000000000FA000000E000E00028FE28FE99
:10016000282454FE5448C4C81026466C92AA44A0C1
:1001700000A0C000000038448200008244380028FB
:10018000107C102810107C1010000A0C00001010B9
:10019000101010000606000004081020407C8A920F
:1001A000A27C0042FE020042868A92628482A2D22F
:1001B0008C182848FE08E4A2A2A29C3C5292920C01
:1001C000808E90A0C06C9292926C60929294780013
:1001D0006C6C0000006A6C00001028448200282823
:1001E000282828008244281040808A90604C929EE3
:1001F000827C7E8888887EFE9292926C7C8282824B
:1002000044FE82824438FE92929282FE90909080C8
:100210007C8292925EFE101010FE0082FE8200042C
:100220000282FC80FE10284482FE02020202FE408E
:100230003040FEFE201008FE7C8282827CFE909080
:1002400090607C828A847AFE909894626292929204
:100250008C8080FE8080FC020202FCF8040204F81C
:10026000FC021C02FCC6281028C6E0100E10E08616
:100270008A92A2C200FE82820040201008040082FE
:1002800082FE0020408040200202020202008040E4
:100290002000042A2A2A1EFE1222221C1C222222AC
:1002A000041C222212FE1C2A2A2A18107E9080404A
:1002B000304A4A4A7CFE1020201E0022BE02000462
:1002C0000222BC00FE081422000082FE02003E2032
:1002D00018201E3E1020201E1C2222221C3E2828F0
:1002E0002810102828183E3E10202010122A2A2AF2
:1002F0000420FC2202043C0202043E3804020438BA
:100300003C020C023C2214081422300A0A0A3C2245
:10031000262A322200106C82000000FE00000082BB
:100320006C1000081010081000000000007F818190
:10033000817F7F8383837F7F8787877F7F8F8F8F77
:100340007F7F9F9F9F7F7FBFBFBF7F7FFFFFFF7F1D
:100350002040FF4020621517156500FBFB000000E0
:1003600000000000C0FF0300E0FF0700F0FF0F00E7
:10037000F8FF1F0078001E0078001E0078001E00A5
:1003800078001E0078001E0078001E0078001E0015
:1003900078001E0078001E00000000000000000031
:1003A00080FF0300E0FF0700F0FF0F00F8FF1F00D1
:1003B000F83C1F00783C1E00783C1E00783C1E0074
:1003C000783C1E00783C1E00783C1E00783C1E00E5
:1003D000783C1E00783C1E00783C1E0000000000A7
:1003E00000000000E0FF0300F0FF0700F8FF0F002F
:1003F000F8FF1F00783C1E00783C1E00783C1E0071
:10040000783C1E00783C1E00783C1E00783C1E00A4
:10041000783C1E00783C1E00783C1E000000000066
:1004200000000000F8FF0300F8FF0F00F8FF1F00B6
:10043000F8FF1F0000001E0000001E0000801F00CB
:1004400000F01F0000FF0F00E0FF0700F0FF0000BA
:10045000F80F0000F80000007800000078000000AD
:10046000F8FF1F00F8FF1F00F0FF1F00E0FF1F0054
:100470000000000000000000F8FF1F00F8FF1F0050
:10048000F8FF1F00F8FF1F0078001E00783C1E00D8
:10049000783C1E00783C1E00783C1E00783C1E0014
:1004A000783C1E00F87E1F00F8FF1F00F0FF0F00D1
:1004B000E0E703000000000000003800EEFF6C00E1
:1004C0002A8045003A0047FC03FF6CFC83FF39009B
:1004D000DEFF0B7CD0810BFCD0810BC0D0810BFCEC
:1004E000D0810B7CDEFF0B0082FF397002FF6CF8BD
:1004F0003A0047DC2A8045CCEEFF6CCC0000380087
:100500000000000C00001E0C00001E0000001E0079
:1005100000001E0000001E00F8FF1F00F8FF1F0073
:10052000F8FF1F00F8FF1F0000001E0000001E0063
:1005300000001E0000001E0000005E0000004000E1
:1005400000007C00000040000000400000007C0033
:1005500000003000000010000000300000007C00AF
:1005600011241FBECFEFD8E0DEBFCDBF11E0A0E069
:10057000B1E0EEE4F7E202C005900D92A232B107BD
:10058000D9F721E0A2E2B1E001C01D92A53EB20779
:10059000E1F70E94250C0C94A51332CD0F931F9305
:1005A00082E00AD4882311F482E005C081E004D4FB
:1005B000882319F481E090E059C0A6D485E061E079
:1005C00043D48EEA60E08DD082EA60E08AD080EA8F
:1005D00060E087D000E513ECC8010197F1F780ECEB
:1005E00060E07FD08FE260E07CD081E860E079D08D
:1005F00086E160E076D082E260E073D0C8010197C6
:10060000F1F78FEA60E06DD086EA60E06AD085EAB3
:1006100060E067D080E090E028E833E1F9013197AD
:10062000F1F7019643E0883E9407C1F783EB60E061
:1006300058D080E460E055D083E060E03CD083E0B7
:1006400060E032D010929B0110929D0110929C01AB
:1006500080E091E09093E2018093E10188E109D08C
:100660003AD484EA60E03DD085E091E01F910F919B
:1006700008951F93182F85E09FD3813099F487E068
:1006800049D082E06AE096D082E061EB93D0612F9E
:10069000113208F060E282E08DD089EE8A95F1F7A0
:1006A00087E038D01F91089583706F776093990128
:1006B00080939A0108950F931F93062F162F1F778B
:1006C0008370806B60E00DD012951F70812F806168
:1006D00060E007D0802F8F7060E003D01F910F91F2
:1006E00008950F931F93082F162F85E065D381304F
:1006F00071F4112319F0113021F402C02B9801C0BC
:100700002B9A86E08A95F1F780E0602F53D01F91F5
:100710000F9108951F93182F82E04ED3813009F076
:1007200047C0912F977080919E01981709F440C09F
:1007300090939E0185B1887F892B85B9933011F103
:10074000943028F4913051F0923090F40CC09530F0
:1007500019F19530E0F0963021F50FC0E0912601B7
:10076000F091270122C0E0912401F09125011DC0E4
:10077000E0912801F091290118C0E0913001F09139
:10078000310113C0E0912A01F0912B010EC0E091DC
:100790002C01F0912D0109C0E0912E01F0912F0163
:1007A00004C0E0913201F0913301309709F00995CE
:1007B0001F9108951F93162FADDF82E0FDD2813087
:1007C00021F41EBD0DB407FEFDCF1F9108952F9299
:1007D0003F924F925F926F927F928F929F92AF92D1
:1007E000BF92CF92DF92EF92FF920F931F93DF930E
:1007F000CF93CDB7DEB7582E962E442E39013C2C20
:10080000C98CDA8C2B8C81E0681721F1681728F0ED
:1008100092E0691709F078C042C080E061E0C4D17D
:1008200080E0B7018AD180E0642DA3019801032DF7
:10083000EE24E394E6EDCE2EE1E0DE2EECD1552061
:1008400009F062C000D00F92EDB7FEB71182B382FB
:10085000A28220C081E061E0A7D181E0B6016DD124
:1008600081E0682D4D895E892F89388D022DEE2417
:10087000E39476EDC72E71E0D72ECDD1552009F047
:1008800043C000D00F92EDB7FEB791828C8D9D8D45
:100890009383828343D20F900F900F9035C082E0F4
:1008A00061E082D180E0B70148D181E0B60145D155
:1008B00080E0642DA3019801032DEE24E39496EDCE
:1008C000C92E91E0D92EA7D181E0682D4D895E898E
:1008D0002F89388D022D9FD15520B1F400D000D042
:1008E0000F92ADB7BEB71196EDB7FEB79182FD017D
:1008F000B282A1828C8D9D8D948383830FD20F90C1
:100900000F900F900F900F90CF91DF911F910F914B
:10091000FF90EF90DF90CF90BF90AF909F908F901F
:100920007F906F905F904F903F902F9008956F92BF
:100930007F928F929F92AF92BF92CF92DF92EF926F
:10094000FF920F931F93DF93CF93CDB7DEB7942E13
:100950007C2DD50149895A89AB88BC88CD88DE8831
:100960009F89813009F44EC0813070F1823009F0E6
:100970006CC0613081F0613020F0623009F065C0F8
:1009800011C080E060E010D180E0B701D6D080E0F7
:10099000692DA80117C081E060E006D181E0B601B1
:1009A000CCD00DC082E060E0FFD080E0B701C5D0C0
:1009B00081E0B601C2D080E0692DA801AAD081E013
:1009C000682DA501A6D041C0EDB7FEB739970FB687
:1009D000F894FEBF0FBEEDBF6DB67EB60894611CE5
:1009E000711C52834183F301B382A282D582C482F7
:1009F0009683888D998D9087878380E0492DC72EB7
:100A00005D011AC0EDB7FEB739970FB6F894FEBF77
:100A10000FBEEDBFADB7BEB7119652834183FD0146
:100A2000B382A282D582C48296831086178281E027
:100A3000492DC72EAA24BB24CADE8DB79EB70996BE
:100A40000FB6F8949EBF0FBE8DBFCF91DF911F915F
:100A50000F91FF90EF90DF90CF90BF90AF909F905D
:100A60008F907F906F90089510D481E08093D5018E
:100A7000EFE9F1E011921192118210823296118207
:100A80001082329611821082329611821082329632
:100A90001182108232961182108232961182108257
:100AA0003296118210823296118210823296118211
:100AB00010823296118210823296118210823696FE
:100AC00011921192119210823296119211921192FA
:100AD000119211921192119211821082329611820A
:100AE000108232961182108232961182108276978D
:100AF000118210823296118210821092D4011092CB
:100B0000D3011092D50187E061E09ED187E091E0AA
:100B10000895EF92FF920F931F93182F062F7A01DB
:100B200060E042D0812F602F2AD0812FB70151D0B1
:100B30001F910F91FF90EF900895482F81E08093CF
:100B4000D501CB0123E0693E720710F088EE93E0F7
:100B5000413071F0413018F0423071F405C090938B
:100B6000AA018093A90108C09093AA018093A901CA
:100B70009093AC018093AB011092D5010895982F0A
:100B800081E08093D501913051F0913018F092308E
:100B900041F403C06093C20104C06093C20160933A
:100BA000C3011092D5010895982F81E08093D5015B
:100BB000913051F0913018F0923041F403C06093BD
:100BC0009F0104C060939F016093A0011092D50122
:100BD0000895482F81E08093D501CB0121E0613950
:100BE000720710F080E991E0413071F0413018F067
:100BF000423071F405C09093A2018093A10108C016
:100C00009093A2018093A1019093A4018093A301EA
:100C10001092D50108958F929F92AF92BF92CF927A
:100C2000DF92EF92FF920F931F93CF93DF93182FD2
:100C3000F62E5A014901E60161E0B6DF812FB501C8
:100C4000A4015DD3812F6F2D9ADF812F602F42D3B6
:100C5000812FB50124D3C114D10499F0113049F08A
:100C6000113018F0123069F406C018821092D101C8
:100C700008C0198204C0188219821092D101109202
:100C8000D201D093D401C093D301EE20A9F582E222
:100C900091E09093D4018093D301812FB40199DF27
:100CA000812FDED2113071F0113018F0123049F579
:100CB00012C0109222011092D1018091220188234A
:100CC000E1F31FC0109223011092D2018091230101
:100CD0008823E1F316C01092220110922301109292
:100CE000D1011092D201809122018823E1F38091F9
:100CF00023018823C1F305C0812FB4016ADF812F4E
:100D0000AFD2DF91CF911F910F91FF90EF90DF90C5
:100D1000CF90BF90AF909F908F900895CF92DF9229
:100D2000EF92FF920F931F93DF93CF93CDB7DEB770
:100D30008B85813061F0813018F08230A1F511C0CF
:100D4000EC85FD858091D6018823E1F306C0EC8512
:100D5000FD858091D7018823E1F3309721F1099532
:100D600022C0CC84DD84EE84FF8400E010E0002308
:100D700051F48091D601882331F0C114D10411F0CF
:100D8000F601099501E0112351F48091D7018823E0
:100D900031F0E114F10411F0F701099511E000239D
:100DA00031F3112321F3CF91DF911F910F91FF9028
:100DB000EF90DF90CF900895E82FF0E0E331F10558
:100DC00040F4E25CFF4FEE0FFF1F0590F491E02D21
:100DD000099480E0089580918601089580918701AB
:100DE00008958091880108958091890108958091E6
:100DF0008A01089580918C01089580918B01089556
:100E000080918D01089580918E01089580918F01C8
:100E100008958091900108958091910108958091A5
:100E2000920108958091930108958091940108950D
:100E30008091950108958091960108958091970180
:100E40000895809198010895E82FF0E0E331F105CD
:100E500008F040C0EF5AFF4FEE0FFF1F0590F491CE
:100E6000E02D0994609386010895609387010895A9
:100E700060938801089560938901089560938A01C1
:100E8000089560938C01089560938B010895609399
:100E90008D01089560938E01089560938F010895E8
:100EA0006093900108956093910108956093920179
:100EB0000895609393010895609394010895609359
:100EC00095010895609396010895609397010895A0
:100ED0006093960108950F931F9380E460E001DC16
:100EE00000E0802F60E0E7DB10E080E061E0F9DB0C
:100EF0001F5F1038D1F70F5F043099F783E060E08F
:100F0000D3DB1F910F910895239A0895FF920F93B9
:100F10001F93CF93DF93F82E8AE0F816B1F08F1568
:100F200048F0E8E0FE16A9F1EF1528F1F7E0FF160A
:100F300051F439C08DE0F81659F0EBE1FE1689F056
:100F4000FCE0FF1641F001E03CC01092990103C0A3
:100F50001092990135C080919A01815080939A0135
:100F60002FC0B9DF13C080E061E0BBDB8091990145
:100F70008F5F809399018091990187FFF4CF109240
:100F8000990180919A01815080939A0100E011E0CB
:100F900019C080919901882399F080919901865018
:100FA000809399010DC081E005D164EF71E080E08C
:100FB00090E04DE750E024E630E005D181E073D0C9
:100FC00000E010E080919A016091990174DB0023A8
:100FD00041F185E0F89EC0011124EC01C355DF4FBB
:100FE0008C010E541F4FFE01849161E07ADB219643
:100FF000C017D107C1F780E061E073DB80919901F0
:101000008A5F809399018091990190E08C379105D6
:101010003CF01092990180919A01815080939A013D
:1010200011E080919A01837080939A01113059F4F4
:1010300080919B01813039F4E0919C01F0919D01F8
:10104000309709F0099580E090E0DF91CF911F91F2
:101050000F91FF9008958AE0AFDE813031F453D2D2
:10106000109235018AE060E0EFCE089589E0A4DEB9
:101070008130C1F480913401882309F0EBD082E003
:1010800042D28091420190914301009731F00E9439
:10109000651010924301109242011092340189E0D0
:1010A00060E0D2CE0895813019F0823011F4DECFA5
:1010B000D2CF08950F931F93CF93DF9380E291E0F7
:1010C0006CD79C019093430180934201892B11F4CA
:1010D00080E032C08901C0E0D0E0BE0180E090E055
:1010E0001DD420E030E040EA51E4B0D327EF35E7EB
:1010F00040E05FE3DBD49B01AC0160E070E080E2A4
:1011000091E437D59B01AC01CA01B9012DEC3CEC4F
:1011100042E851E4CBD490D42AE030E040E050E003
:10112000F2D6F80161937193819391938F01219687
:10113000C834D10591F681E0DF91CF911F910F91D5
:1011400008958AE039DE882361F410923F011092FD
:101150003E0181E0F4D181E0809335018AE061E0D5
:1011600073DE8AE091E008951F938BE025DE8823EB
:1011700011F090E01CC089E01FDE8823B9F49ADFEB
:10118000182F813099F41092360110923701109285
:101190003801109239018DE069E27AE046D182E0AF
:1011A000CED11093340189E061E04EDE91E089E018
:1011B0001F910895813029F0823021F090E089E07C
:1011C0000895BFCFD1CF8F929F92AF92BF92CF920F
:1011D000DF92EF92FF920F931F93CF93DF934B0118
:1011E0005C01EA01B9012115310511F19E01442785
:1011F00037FD4095542F6536710510F064E670E0B8
:1012000080E090E080D624E630E040E050E08AD6EE
:1012100079018A01C501B4011ED1C701ABD060E0DC
:1012200070E080E090E017D1CE018E199F0904C0D4
:101230004115510511F0CA019DD0DF91CF911F9149
:101240000F91FF90EF90DF90CF90BF90AF909F9065
:101250008F900895EFE6F0E080818D7F8083089580
:10126000982F81E08093D501913051F0913018F0A2
:10127000923041F403C01092BD0104C01092BD0130
:101280001092BE011092D50108953A9A3B9A3C9A69
:101290003D9A3E9A3F9A88B1837088B90895982FF5
:1012A00081E08093D501913071F0913018F0923047
:1012B00071F405C07093B2016093B10108C07093DE
:1012C000B2016093B1017093B4016093B3011092C5
:1012D000D5010895982F81E08093D501913051F088
:1012E000913018F0923041F403C06093BF0104C004
:1012F0006093BF016093C0011092D50108950F93D0
:101300001F93CF93DF93EB018A018130F9F0813095
:1013100018F0823051F50DC08091A9019091AA0179
:10132000892B11F080E019C01092B6011092B5011E
:101330001CC08091A9019091AA01892B19F080E02D
:1013400028D104C01092B6011092B5018091AB0172
:101350009091AC01892B29F081E0BE01A80119D13F
:1013600004C01092B8011092B701DF91CF911F9184
:101370000F910895DF93CF93CDB7DEB729970FB6BE
:10138000F894DEBF0FBECDBF9C01CE01019661E097
:1013900040E010D0982F882319F48F818823E9F337
:1013A000892F29960FB6F894DEBF0FBECDBFCF911F
:1013B000DF910895EF92FF920F931F93CF93DF93E6
:1013C000EC01F62EE42E890188E0F6DC813011F084
:1013D00081E024C084E090E0E0D5FC01009711F4A6
:1013E00082E01CC0F982F0FC1E8281E0E81619F44C
:1013F0008981846089838981886089831B830A83CA
:101400001D830C83D183C0831382128281E0809379
:101410008401CF0127D11092840180E0DF91CF9128
:101420001F910F91FF90EF900895E82F803268F49C
:101430008051833050F0F0E0EE0FFF1FEC5BFE4F69
:10144000208131817183608302C020E030E0C901D6
:10145000089518C008959B01AC018091350188233F
:1014600081F0DA01C901880F991FAA1FBB1F909351
:10147000410180934001211531054105510509F4D1
:101480005F9808958091360190913701A0913801BD
:10149000B091390120913A0130913B0140913C01DA
:1014A00050913D01280F391F4A1F5B1F20933601C1
:1014B00030933701409338015093390180913601C0
:1014C00090913701A0913801B09139018851964F20
:1014D000A040B040BCF08BB180588BB980913601F0
:1014E00090913701A0913801B09139018851964F00
:1014F000A040B0408093360190933701A09338010B
:10150000B09339010895823029F4809181008E7F53
:101510008093810080913401813031F480913501D4
:10152000813011F40000089580913401813021F060
:1015300080913501813011F45F9857980895982F64
:1015400080913401882331F480913501882311F48E
:10155000579A5F98809134018823D1F49230C1F476
:1015600010928000109281008091810088608093A9
:1015700081008091810081608093810010928500BC
:101580001092840081E08093890080E98093880034
:101590000895EF92FF920F931F93CF93DF93EB0188
:1015A000882321F0813009F056C02BC09A0140E019
:1015B00050E0CA01B901A7D42091A9013091AA0134
:1015C000220F331F40E050E0ADD479018A01A80119
:1015D0009701220F331F441F551FCE01A0E0B0E03A
:1015E00082179307A407B50728F0F092B601E0929E
:1015F000B50131C0D695C795D093B601C093B5015A
:101600002AC09A0140E050E0CA01B9017CD420917F
:10161000AB013091AC01220F331F40E050E082D487
:1016200079018A01A8019701220F331F441F551F1A
:10163000CE01A0E0B0E082179307A407B50728F019
:10164000F092B801E092B70106C0D695C795D09345
:10165000B801C093B701DF91CF911F910F91FF9017
:10166000EF900895CF92DF92EF92FF920F931F9326
:10167000CF93DF93EC018091D801882331F4D0938C
:10168000DA01C093D90156D047C0C090D901D0909B
:10169000DA0100E010E0EE24FF2437C0A881B98110
:1016A000FD0164817581F60140815181FA018481D7
:1016B00095819B01281B390B37FF0FC0861B970BA9
:1016C00095838483DB82CA82012B29F4D093DA01CB
:1016D000C093D90121C0F7010CC0F601828193812A
:1016E0002115310549F4FD01158214829B838A83FB
:1016F000F601D383C28310C0FD0135832483009794
:10170000B9F30F5F1F4F76016C018091D80190E013
:101710000817190718F2ECCF8091D8018F5F8093DA
:10172000D801DF91CF911F910F91FF90EF90DF9043
:10173000CF90089581E08093850108958F92AF92B4
:10174000BF92CF92EF92FF920F931F931F921F921F
:101750001F9281E08F9380E98F931F9288EC8F9383
:1017600083E08F9388EE8F93812CA12CB12CC12C18
:101770000F2EF0E9EF2EFF24F394F02D08EC10E08B
:1017800028EE33E040E062E080E0D1D88DB79EB72C
:1017900009960FB6F8949EBF0FBE8DBF1F910F9193
:1017A000FF90EF90CF90BF90AF908F9008958F9261
:1017B000AF92BF92CF92EF92FF920F931F931F921F
:1017C0001F921F9281E08F9380E98F931F9288EC84
:1017D0008F931F9286E98F9388248394A12CB12C38
:1017E000C12C0F2EF0E9EF2EFF24F394F02D08EC1E
:1017F00010E026E930E040E062E080E098D88DB764
:101800009EB709960FB6F8949EBF0FBE8DBF1F916D
:101810000F91FF90EF90CF90BF90AF908F90089571
:101820008DDFC5DF8BDFC3DF89DFC1DF87DFBFCFA0
:1018300008950E94CE0284E191E09F938F93D4D4C7
:1018400013D90F900F90ECDFFECFF3DF0CD0BAC0AE
:10185000B2D040F0A9D030F021F45F3F19F09BC026
:101860005111E4C09EC0BFD098F39923C9F355230A
:10187000B1F3951B550BBB27AA2762177307840783
:1018800038F09F5F5F4F220F331F441FAA1FA9F339
:1018900033D00E2E3AF0E0E830D091505040E6952B
:1018A000001CCAF729D0FE2F27D0660F771F881F8C
:1018B000BB1F261737074807AB07B0E809F0BB0B7B
:1018C000802DBF01FF2793585F4F2AF09E3F51059F
:1018D00068F061C0ABC05F3FECF3983EDCF38695E7
:1018E00077956795B795F7959F5FC9F7880F911D15
:1018F0009695879597F90895E1E0660F771F881F01
:10190000BB1F621773078407BA0720F0621B730BB3
:10191000840BBA0BEE1F88F7E0950895E89409C090
:1019200097FB3EF490958095709561957F4F8F4F12
:101930009F4F9923A9F0F92F96E9BB279395F69528
:10194000879577956795B795F111F8CFFAF4BB0FA6
:1019500011F460FF1BC06F5F7F4F8F4F9F4F16C00A
:10196000882311F096E911C0772321F09EE8872F94
:10197000762F05C0662371F096E8862F70E060E050
:101980002AF09A95660F771F881FDAF7880F9695C9
:10199000879597F9089597F99F6780E870E060E070
:1019A00008959FEF80EC089500240A9416161706F8
:1019B00018060906089500240A9412161306140640
:1019C00005060895092E0394000C11F4882352F0A3
:1019D000BB0F40F4BF2B11F460FF04C06F5F7F4F5B
:1019E0008F4F9F4F089557FD9058440F551F59F042
:1019F0005F3F71F04795880F97FB991F61F09F3FFC
:101A000079F087950895121613061406551FF2CF24
:101A10004695F1DF08C0161617061806991FF1CF74
:101A200086957105610508940895E894BB2766279B
:101A30007727CB0197F90895DEDFA8F19E57A8F12B
:101A4000985160F039F1983070F5092E9927660F9A
:101A5000771F881F991F0A94D1F71CC0BB27993F95
:101A60004CF4B111B1E0B62B672F782F8827985F1F
:101A7000B1F708C0869577956795B79508F4B1607A
:101A80009395C1F7BB0F30F411F460FF03C06F5F93
:101A90007F4F8F4F3EF490958095709561957F4F65
:101AA0008F4F9F4F08956894C1CFBFCF0BD08ACF7F
:101AB0007BDF28F080DF18F0952309F06CCF71CF21
:101AC0001124B4CF90DFA0F3959FD1F3950F50E090
:101AD000551F629FF001729FBB27F00DB11D639FE0
:101AE000AA27F00DB11DAA1F649F6627B00DA11D86
:101AF000661F829F2227B00DA11D621F739FB00D2C
:101B0000A11D621F839FA00D611D221F749F33279B
:101B1000A00D611D231F849F600D211D822F762F34
:101B20006A2F11249F5750408AF0E1F088234AF031
:101B3000EE0FFF1FBB1F661F771F881F915050407D
:101B4000A9F79E3F510570F026CF70CF5F3FECF3B1
:101B5000983EDCF3869577956795B795F795E79569
:101B60009F5FC1F7FE2B880F911D9695879597F97A
:101B70000895FA01EE0FFF1F30962105310599F106
:101B80006115710561F48038BFE39B0749F16894E2
:101B90009038810561F08038BFEF9B0741F09923B1
:101BA00042F5FF3FE1053105210511F1E894089464
:101BB000E795D901AA2329F4AB2FBE2FF85FD0F304
:101BC00010C0FF5F70F4A695E0F7F73950F019F0F8
:101BD000FF3A38F49F779F930CD00F9007FC9058F2
:101BE00008953EF0DECE60E070E080E89FE3089567
:101BF0004FE79F775F934F933F932F939ED02F9103
:101C00003F914F915F9152DF05C019F40EF0C3CEA2
:101C10000CCFC7CEF0DEC8F39638C0F707F80F92A6
:101C2000E8942BE33AEA48EB5FE74EDF0F920F921E
:101C30000F924DB75EB70F92C0D0E8ECF0E016D02F
:101C40004F915F91EF91FF91E595EE1FFF1F49F0D6
:101C5000FE57E0684427EE0F441FFA95E1F74195DF
:101C6000550B32D00F9007FE26C00895DF93CF9317
:101C70001F930F93FF92EF92DF927B018C01689488
:101C800005C0DA2EEF011EDFFE01E894A591259133
:101C9000359145915591AEF3EF01D4D0FE019701F6
:101CA000A801DA9479F7DF90EF90FF900F911F91E0
:101CB000CF91DF9108959B01AC0160E070E080E876
:101CC0009FE3C4CD68CE11C196DEE8F39923D9F322
:101CD000940F511DBBF39150504094F059F088235C
:101CE00032F0660F771F881F91505040C1F79E3F1A
:101CF000510544F7880F911D9695879597F908959A
:101D00005F3FACF0983E9CF0BB2786957795679532
:101D1000B79508F4B1609395C1F7BB0F58F711F46C
:101D200060FFE8CF6F5F7F4F8F4F9F4FE3CF7ECE37
:101D30000EF0DBC036CE68942ECE5DDEC8F399235C
:101D4000D1F3C6F3DF93CF931F930F93FF92C92F65
:101D5000DD2788232AF02197660F771F881FDAF77F
:101D600020E030E040E85FEB9FE3883920F0803EE0
:101D700030F021968F7755D0E0EFF0E003C051D0DE
:101D8000EDE1F1E073DF8B01BE01EC01FB2E6F573B
:101D900071097595771F880B990BC2DD28E132E731
:101DA00041E35FE38FDEAF2D9801AE01FF900F910D
:101DB0001F91CF91DF9146D005CEFA01DC01AA0F29
:101DC000BB1F9B01AC01BF5728F4222733274427B0
:101DD00050781FC0B75188F4AB2F00244695379533
:101DE0002795011CA395D2F3002069F0220F331F21
:101DF000441FB395DAF30DD013C061307105A0E82C
:101E00008A07B94630F49B01AC01662777278827FB
:101E10009078309621F02083318342835383089554
:101E20005058BB27AA270ED0CDCDBEDD30F0C3DD84
:101E300020F031F49F3F11F41EF4B3CD0EF4E09581
:101E4000E7FBA9CDE92FCFDD80F3BA17620773074F
:101E50008407950718F071F49EF5E7CD0EF4E09530
:101E60000B2EBA2FA02D0B01B90190010C01CA0154
:101E7000A0011124FF27591B99F0593F50F4503EFF
:101E800068F11A16F040A22F232F342F4427585FF1
:101E9000F3CF469537952795A795F0405395C9F709
:101EA0007EF41F16BA0B620B730B840BBAF09150C1
:101EB000A1F0FF0FBB1F661F771F881FC2F70EC060
:101EC000BA0F621F731F841F48F487957795679533
:101ED000B795F7959E3F08F0B3CF9395880F08F01C
:101EE0009927EE0F9795879508959F3F31F0915070
:101EF00020F4879577956795B795880F911D9695EE
:101F0000879597F90895DB018F939F932DD0BF910B
:101F1000AF91A29F800D911DA39F900DB29F900D38
:101F200011240895A1E21A2EAA1BBB1BFD010DC0AE
:101F3000AA1FBB1FEE1FFF1FA217B307E407F50779
:101F400020F0A21BB30BE40BF50B661F771F881F55
:101F5000991F1A9469F760957095809590959B01EB
:101F6000AC01BD01CF01089509D0A59F900DB49F8C
:101F7000900DA49F800D911D11240895A29FB00182
:101F8000B39FC001A39F700D811D1124911DB29FAD
:101F9000700D811D1124911D0895CF93DF93823020
:101FA000910510F482E090E0E091DD01F091DE0116
:101FB00020E030E0A0E0B0E0309739F1408151817D
:101FC00048175907B8F04817590771F4828193816F
:101FD000109729F013969C938E9312972CC0909390
:101FE000DE018093DD0127C02115310531F0421754
:101FF000530718F0A901DB0101C0EF019A01BD01EF
:10200000DF010280F381E02DD7CF21153105F9F0F2
:10201000281B390B2430310580F48A819B8161159E
:10202000710521F0FB019383828304C09093DE014C
:102030008093DD01FE01329644C0FE01E20FF31FE2
:102040008193919322503109398328833AC020919A
:10205000DB013091DC01232B41F420911001309100
:1020600011013093DC012093DB0120910E013091AE
:102070000F012115310541F42DB73EB740911201F2
:1020800050911301241B350BE091DB01F091DC0131
:10209000E217F307A0F42E1B3F0B2817390778F03F
:1020A000AC014E5F5F4F2417350748F04E0F5F1F9E
:1020B0005093DC014093DB018193919302C0E0E0F7
:1020C000F0E0CF01DF91CF910895CF93DF93009798
:1020D00009F487C0FC01329713821282C091DD019E
:1020E000D091DE01209781F420813181280F391FA2
:1020F0008091DB019091DC018217930779F5F093D1
:10210000DC01E093DB016DC0DE0120E030E0AE17C2
:10211000BF0750F412964D915C9113979D014115A4
:10212000510509F1DA01F3CFB383A28340815181D4
:10213000840F951F8A179B0771F48D919C911197BD
:10214000840F951F02969183808312968D919C91A6
:102150001397938382832115310529F4F093DE01CF
:10216000E093DD013EC0D9011396FC93EE931297E4
:102170004D915D91A40FB51FEA17FB0779F480819B
:102180009181840F951F0296D90111969C938E938D
:102190008281938113969C938E931297E0E0F0E0F6
:1021A0008A819B81009719F0FE01EC01F9CFCE01E5
:1021B000029628813981820F931F2091DB01309193
:1021C000DC012817390769F4309729F41092DE01F1
:1021D0001092DD0102C013821282D093DC01C09301
:1021E000DB01DF91CF910895A0E0B0E0E9EFF0E1ED
:1021F00085C2FE01359661917191AF018091E10137
:102200009091E20102D0E2E095C2ACE0B0E0EAE0F9
:10221000F1E164C27C016B018A01FC011782168224
:10222000838181FFB0C1CE0101964C01F7019381FA
:10223000F60193FD859193FF81916F01882309F445
:102240009EC1853239F493FD859193FF81916F0191
:10225000853221F4B70190E0B1D1E8CF512C312C77
:1022600020E02032A0F48B3269F030F4803259F053
:10227000833269F420612CC08D3239F0803339F417
:10228000216026C02260246023C0286021C027FD71
:1022900027C030ED380F3A3078F426FF06C0FAE058
:1022A0005F9E300D1124532E13C08AE0389E300DEE
:1022B0001124332E20620CC08E3221F426FD5FC122
:1022C000206406C08C3611F4206802C0883641F4C0
:1022D000F60193FD859193FF81916F018111C1CF2B
:1022E000982F9F7D9554933028F40C5F1F4FFFE388
:1022F000F9830DC0833631F0833771F0833509F0EF
:1023000057C021C0F801808189830E5F1F4F44248C
:102310004394512C540114C03801F2E06F0E711C2B
:10232000F801A080B18026FF03C0652D70E002C0D7
:102330006FEF7FEFC5012C8736D12C0183012C85EF
:102340002F77222E16C03801F2E06F0E711CF801B3
:10235000A080B18026FF03C0652D70E002C06FEF42
:102360007FEFC5012C8714D12C012C852068222EEB
:10237000830123FC19C0832D90E048165906A0F470
:10238000B70180E290E01AD13A94F5CFF50127FC2D
:10239000859127FE81915F01B70190E00FD1311047
:1023A0003A94F1E04F1A51084114510479F7DEC014
:1023B000843611F0893631F5F80127FF07C06081B6
:1023C0007181828193810C5F1F4F08C06081718190
:1023D000882777FD8095982F0E5F1F4F2F76B22E9E
:1023E00097FF09C090958095709561957F4F8F4FAD
:1023F0009F4F2068B22E2AE030E0A40111D1A82E10
:10240000A81843C0853729F42F7EB22E2AE030E089
:1024100025C0F22FF97FBF2E8F36C1F018F4883512
:1024200079F0ADC0803719F0883721F0A8C02F2F80
:102430002061B22EB4FE0DC08B2D8460B82E09C071
:1024400024FF0AC09F2F9660B92E06C028E030E016
:1024500005C020E130E002C020E132E0F801B7FE23
:1024600007C060817181828193810C5F1F4F06C01C
:102470006081718180E090E00E5F1F4FA401D0D099
:10248000A82EA818FB2DFF77BF2EB6FE0BC02B2D54
:102490002E7FA51450F4B4FE0AC0B2FC08C02B2D48
:1024A0002E7E05C07A2C2B2D03C07A2C01C0752CF2
:1024B00024FF0DC0FE01EA0DF11D8081803311F46F
:1024C000297E09C022FF06C07394739404C0822F32
:1024D000867809F0739423FD12C020FF06C05A2CA1
:1024E000731418F4530C5718732C731460F4B70159
:1024F00080E290E02C8762D073942C85F6CF731421
:1025000010F4371801C0312C24FF11C0B70180E34B
:1025100090E02C8753D02C8522FF16C021FF03C0EA
:1025200088E590E002C088E790E0B7010CC0822FF8
:10253000867851F021FD02C080E201C08BE227FDC8
:102540008DE2B70190E03AD0A51430F4B70180E3F2
:1025500090E034D05A94F8CFAA94F401EA0DF11D1A
:102560008081B70190E02AD0A110F6CF332009F482
:102570005DCEB70180E290E021D03A94F7CFF70129
:102580008681978102C08FEF9FEF2C96E2E1C2C057
:10259000FC010590615070400110D8F7809590952E
:1025A0008E0F9F1F0895FC01615070400190011033
:1025B000D8F7809590958E0F9F1F08950F931F93C6
:1025C000CF93DF93182F092FEB018B8181FD03C07F
:1025D0008FEF9FEF20C082FF10C04E815F812C8162
:1025E0003D81421753077CF4E881F9819F012F5FF9
:1025F0003F4F39832883108306C0E885F985812FF2
:102600000995892B29F72E813F812F5F3F4F3F830B
:102610002E83812F902FDF91CF911F910F910895DD
:10262000FA01AA27283051F1203181F1E8946F9303
:102630006E7F6E5F7F4F8F4F9F4FAF4FB1E03ED0A9
:10264000B4E03CD0670F781F891F9A1FA11D680F47
:10265000791F8A1F911DA11D6A0F711D811D911D7A
:10266000A11D20D009F468943F912AE0269F1124EF
:102670003019305D3193DEF6CF010895462F477053
:10268000405D4193B3E00FD0C9F7F6CF462F4F70AE
:10269000405D4A3318F0495D31FD4052419302D00C
:1026A000A9F7EACFB4E0A6959795879577956795B2
:1026B000BA95C9F700976105710508959B01AC01B2
:1026C0000A2E06945795479537952795BA95C9F7D9
:1026D000620F731F841F951FA01D08952F923F92B4
:1026E0004F925F926F927F928F929F92AF92BF9222
:1026F000CF92DF92EF92FF920F931F93CF93DF93CE
:10270000CDB7DEB7CA1BDB0B0FB6F894DEBF0FBE2A
:10271000CDBF09942A88398848885F846E847D8477
:102720008C849B84AA84B984C884DF80EE80FD8079
:102730000C811B81AA81B981CE0FD11D0FB6F894EF
:0E274000DEBF0FBECDBFED010895F894FFCFB0
:10274E0000000002000000008607000000000000EC
:10275E00E501200048656C6C6F2C20446F6C6C7921
:02276E00210048
:00000001FF
